:400000000080002011000000DD030000DD03000008B500F0E5F9C04608B512222B4B1A60302000F08BFB2A4A2A4B1A60C0229200294B1A60294B2A4919602A490A602A49A2
:4000400019602A490A602A4A1A60BC22920129490A602949196029490A60294A1A6080218900284A1160284A1A6088218901274A1160274A1A6082221206264B1A608022F9
:40008000D202254B1A604222244B1A600132244B1A60023A234B1A604623234A1360234A13604522224B1A60053A224B1A600432214B1A600820214900F092FA082000F016
:4000C00083FA00221E4B1A6008BDC046300010400600008004010B40080301400000014042FF00800C03014043FF00800403014041FF00801803014046FF0080140301407C
:4001000045FF00800003014040FF00801003014044FF008008010B4000010B4058010140540101405001014034010140300101402C0101402801014008010140DD0900008F
:400140000C020B4010B572B60122514B1A70002410E0504863001A195200821891881B195B001A5AC31858880004104300F0A0F90134E4B2012CECD94649081C0C305431DA
:4001800000F07CF9E0221201434B1A800122434B1A7080229200424B1A604249424B1960EE210902414B19604149424B196099231B0441490B6041490B60414841490860A7
:4001C00041490B6041484249086042490B604249424801608024A403414804608A24E4034048046040480160802080043F490860802040043E4908603E490A603E4A1360AD
:400200003E4A13603E4A3F4B1A6003233E4A13603E4A13603E4B18780221022202431A701878062202431A7044223A4B1A708032394B1A70394A3A4B1A603A4A3A4B1A602B
:400240003A4A3B4B1A60FF233A4A13603A4A13603A4A13603A4A13603A4A3B4B1A603B4B19603B4A3B4B1A603B4B19603B4A3C4B1A6028223B4B1A603B4A3C4B1A603C4A19
:400280003C4B1A60FFF7C8FE00F028F910BDC0461C700F40540B000000600F4002600F4000000240777777770001024000030240900002000004024000500F4010500F4037
:4002C000000072E118500F4020500F4000008D6328500F4030500F400400990040500F4044500F4048500F4050500F4054500F4058500F405C500F4060500F4070500F4087
:400300001BBB0B00200120402000104000800F4000700F4058300F40D8320F40B16CC00008000440306C1B00080A0440B06D3B00080B044000010440180104400002044060
:4003400018020440800DC4000803044000040440B62D1B000804044018040440306018000805044000060440B66D030008060440B61D00000807044010B5064C2378002BCB
:4003800007D1054B002B02D0044800E000BF0123237010BDE000002000000000500B000008B5084B002B03D00748084900E000BF07480368002B00D108BD064B002BFBD03F
:4003C0009847F9E700000000500B0000E4000020C80000200000000062B6FEE7FEE7C04670B50F4E0F4D13E029686B68AC68002202E001C901C30432A242FAD1E8680022DD
:4004000002E0002102C304328242FAD11035013E002EE9D100F06EFBFFF7DEFFFEE7C046010000001812000008B50F4A136801218B43136000230AE0032B03D89A000B4989
:40044000505800E00A4899000A4A885001332F2BF2D9FFF777FE0022074B1A60024A116801230B43136008BD0000104000000000DD03000000000020C0000020F0B50025C2
:40048000002711E0BB00C658F3B2FF22964308E06A008A181478A419527822700135013BDBB2002BF4D10137112FEBD9F0BDC04608B50A1C002100F043FB08BD064B1B686A
:4004C000002803D080221206134301E05B005B08014A13607047C04680033A4008B503230A4A13600A4A136080221205094B1A60094A0A4B1A60FF22094B1A600022094B5B
:400500001A600120FFF7DAFF08BDC046300030403000314000003A40FF00080000033A4040033A40000E3F40024A1168024B0B401360704700002240FFFFFFBF034B18688A
:400540008023DB05184000D001207047000022400A4A136801218B431360094B1A681E318A43084802601A688A4317390A431A60054A116802230B431360704750000C4059
:4005800034FF0B40FC00002024002C40064A136802218B43136005490B681F229343044A126813430B60704724002C4034FF0B40FC000020034B1B680220184000D0012064
:4005C0007047C04624002C401F2318401E3B8340181C014B1860704700E100E001BE704738B5041C0D1C1F2802D90020FFF7F6FFA400034B9C4664442068256038BDC0462B
:400600004000002010B5041C06E0084B186800F037FA074B9C46644480231B029C42F4D8024B5868604300F02BFA10BDCC0000200080FFFF30B583B000F07AF900285BD08B
:4006400000F027FA041C2D4A116801230B43136000230AE02A4A11683F220A402949C95C8A4201D1033303E001332D2BF2D90323254A1268D20606D1234802681F218A438A
:4006800013390A430260214A1168214A1140214A5A438020C00184466244D20B013A5205520D0A43A02149031143192B02D81A490A430BE0194A9A1812781248C3189B7DA5
:4006C000D218FF2A00D9FF2292050A430F4B1A60134D2B680193302000F0E2F9114A13688021C9050B4313601420FFF78BFF019B2B60201C00F0D1F903B030BD50000C4080
:400700002CFF0B40AC11000034FF0B400800224000F800C040420F000000D43F4DF3FF0F300010400000224008B5034B1B7A584300F0A6F908BDC046CC000020F0B55F4647
:4007400056464D464446F0B483B0041C00F0A1F90190FFF7F3FE002804D0FFF7E5FE01239B4601E000239B46FFF724FF002807D0182C01D0302C05D1FFF708FF012502E0A4
:40078000002500E00025E71E2D2F00D985E04E4B1B78DBB2A34208D34C4B1B78DBB29A464B4B1B78DBB2994631E04A4B1B78DBB2A34208D3484B1B78DBB29A46474B1B788D
:4007C000DBB2994623E0464B1B78DBB2A34208D3444B1B78DBB29A46434B1B78DBB2994615E0424B1B78DBB2A34208D3404B1B78DBB29A463F4B1B78DBB2994607E03E4B17
:400800001B78DBB29A463D4B1B78DBB299463C4BDB5D98462F2B09D92A2C07D91922394B1A60052000F02CF9192603E0354B1E683F231E40B04506D2314BDA5D314B1A6051
:40084000052000F01DF9012D05D1302C03D12E4B1B78DBB20CE0012D05D1182C03D12B4B1B78DBB204E0254B9C4664442378DBB2274A1360274B52461A60274B4A461A60F8
:400880000520FFF751FFB0450AD91D4BDA5D1D4B1A60052000F0F4F802E00020FFF79EFE5B46012B01D1FFF7C5FE012D01D1FFF74FFE019800F0F1F803B03CBC9046994672
:4008C000A246AB46F0BDC04640F3FF0F41F3FF0F42F3FF0F43F3FF0F44F3FF0F45F3FF0F46F3FF0F47F3FF0F48F3FF0F49F3FF0F4AF3FF0F4BF3FF0F4CF3FF0F4DF3FF0F83
:40090000AC1100002CFF0B403FF3FF0F3EF3FF0F28FF0B401CFF0B4020FF0B40034B1868C0231B02184000D00120704700010B40034B1B68002B01DA012000E000207047FA
:400940000000224008B500F0A4F8044A1368C02109020B43136000F0A0F808BD00010B4010B500F096F808490A68084B1A408024E40122430A600A681340802212021343E1
:400980000B6000F08AF810BD00010B40FF3FFFFF70B5061C00F07DF8041CFFF7BFFF002803D0FFF7DDFF012500E000250848331C0340084A10680849084018431060136802
:4009C000012D01D1FFF7BEFF201C00F066F870BD0404040010020B40FBFBFBFF10B5244B1B685B0715D5234B1B685B070ED5224B9969042001401F4C22688A4322609A69E0
:400A000082439A61DB68002B00D098470420FFF7BFFF174B1B685B0518D5164B1B685B0510D5154B99698022D2001140114802688A4302609969114A0A409A611B69002B3C
:400A400000D098478020C000FFF7A2FF084B1B685B030CD5074B1B685B0304D5064B5B69002B00D098478020C002FFF791FF10BD10020B40DC00002018010020FFFBFFFF81
:400A80000230800803D00138FDD1C046C046C0467047EFF3108072B6704780F31088704738B5041CFFF7F5FF051C102C05D8104A136803218B43136016E0202C07D80C49E5
:400AC0000B6803229343023A13430B600CE0302C07D807490B6803229343013A13430B6002E00020FFF77AFD281CFFF7D6FF38BD300010400E4B70B500251E1C0D4CE41A83
:400B0000A410A54204D0AB00F35898470135F8E700F070FB084B00251E1C084CE41AA410A54204D0AB00F35898470135F8E770BD0012000000120000001200000812000027
:400B4000031C8218934202D019700133FAE770470000000000300F40000800400F40000802000F4062300F4031310F4064320F4041330F405B340F4047350F405C360F408D
:400B80003A370F4010400F4015410F401E420F400E430F400D440F401A450F4013460F4001470F4003600F40846F876F03FF050F060107F009330BCC0F011320170218021D
:400BC0001B801F402310270828022B042D552FAA300133FF340238203C043E103F044020410449FF4AFF4BFF4DA04F015018580459045A045B045C115D015F0160406280DB
:400C000064406540668068406A806C406D206E80870F8B0F8D038F0C900691059201930A950C9607970398059A02A406A601AE07B001B104B202B308B404B502B701C02022
:400C4000C104C9FFCAFFCBFFCDAFCE07CF01D018D804D904DA04DC22DD01DF01E040E280E440E540E680E840EA80EC40ED20EE8000080A040E9812081744184819081D01BE
:400C80001F14200822082519270229602A06328133283602370439953D883E1040444102431147114802494068AA69557920814083088508860189108B048D30C004C27241
:400CC000C4A2CA0FCCCFCE7FD0A5DE04E010E280E61200020201030208080A041020121013011404160818801A401B041C401E802001220228102A20310132FF33023704C3
:400D000038083E044020410449FF4AFF4BFF4DAF4E074F015018580459045A045B045C205D015F016040628064406540668068406A806C406D206E80820886028A208C55F1
:400D40008EAA920196049A109B019E80A0FFA40FA6F0A833AACCAE40B4FFB701BC40BE10C020C104C55EC6C3C702C81FC9FFCAFFCBFFCDAFCE07CF01D018D804D904DA0452
:400D8000DC30DD01DF01E040E280E440E540E680E840EA80EC40ED20EE800020014002800320074408800A680EAA10A9171119801A041E10218022202544264627403220C5
:400DC00037113E0140444408450248404904516053045C0C6E236F117B8080808380858088018E408F209048914093209404961499019E049F44A0ACA102A544A646A909C3
:400E0000AE02AF02B320B680C05FC2FFC45FCCA4CE80D0A5DE01E008E605EC040208060407010C040F0210011A011C02250226023001310132083302340436023E513F0486
:400E40004050410149FF4AFF4BFF4DA04F015018540F5604580459045A045B045C115D135F016040628064406540668068406A806C406D206E80800E82018502880A8A058D
:400E80008D029003920C960F9702980B9A049B019D02AB02B001B204B402B501B608B702C050C101C9FFCAFFCBFFCDAFCE07CF01D018D804D904DA04DC22DD03DF01E04016
:400EC000E280E440E540E680E840EA80EC40ED20EE80004802400744081009820B080E981220180419891F5A210222042680270429082E103610374439803A403B083D8889
:400F00004180458049804D80581059015A4861246340830A87408B508C108E1490409180921093089404962099049B409E049F04A044A1E4A274A901AA80AE04B010B310EB
:400F4000B404C05DC27BC404CA22CC70CE5AD018D218D60FD807E080E220E6C0EA20EE0C0505070A0B0F0D080F07150917061A011D0C1F0331013308340135023704405000
:400F8000410149FF4AFF4BFF4DAF4E074F015018580459045A045C235D035F016040628064406540668068406A806C406D206E80820284048E048F04930195019801A208AD
:400FC000A302A601A904B004B101B202B304B408B502B601BE41BF05C050C101C525C6C3C70EC81FC9FFCAFFCBFFCDAFCE07CF01D018D40FD604D804D904DA04DB04DC13B3
:40100000DD33DF01E040E280E440E540E680E840EA80EC40ED20EE800088010202010A040C2010A019641A401E04200822052425250129202A013105374438803D883E1037
:4010400041804580482049834D8050C05108521059505A0A610862106380810183408C058D1292109420964099809B44A040A1C4B680C00DC242C40CCA05CC53CE78D01882
:40108000D218D60FD807E650E808EA40050209816B026F1081018280872088088C018D80C020C250DAC0E080E240E4805010530256085C025F206009674090019340980AE8
:4010C0009B209E809F12A802AD02AF40D4E0D6E0D8C0EC10EEC013101440524057805B405D846201630167408209870288408A408B408F029104942099809E889F12A702C4
:40110000A980B104C460D4E0D6E0D8C0E220E6C0EA20068083508C108F01942097019E809F50AF10B780C020E220E680E810020205280A200D103320520885208A02C007C8
:40114000C209CC08D404E6040148070808080B080C04330243085D028018870289108D408F089120A608AB20B108B610C00BC20ECC02D002D601E202E606EA0300100704F3
:401180000B0289028F0594109D02A608A908AF04B004B708C003C202E001E202E608E808EE01AE08100E1101120E0000030405060708090A0B0C0E0F101112131415161718
:4011C00018191B1C1D1E1F2021222325262728292A2B2E2F3031323334350000EEDBC9B9AA9B8E82766B60564D443B332C241D17100A0400F8B5C046F8BC08BC9E46704765
:40120000A103000029040000F8B5C046F8BC08BC9E4670477903000028120000C80000201800000058000000000000000000C05D80BB000030000000006CDC02040404002B
:40124000000000000000000000000000000000000000000000000000000000000000000000000000000000000000000000000000000000000000000000000000000000006E
:40128000000000000000000000000000000000000000000000000000000000000000000000000000000000000000000000000000000000000000000000000000000000002E
:4012C00000000000000000000000000000000000000000000000000000000000000000000000000000000000000000000000000000000000000000000000000000000000EE
:4013000000000000000000000000000000000000000000000000000000000000000000000000000000000000000000000000000000000000000000000000000000000000AD
:020000040003F7
:0200000490303A
:02000000CA8CA8
:0200000490402A
:4000000000000000000000000000000000000000000000000000000000000000000000000000000000000000000000000000000000000000000000000000000000000000C0
:400040000000000000000000000000000000000000000000000000000000000000000000000000000000000000000000000000000000000000000000000000000000000080
:0200000490501A
:0C0000000002101311A000011018DC2CED
:0200000490600A
:0100000001FE
:00000001FF